:100000000C9452070C947F070C947F070C947F0785
:100010000C947F070C947F070C947F070C947F0748
:100020000C947F070C947F070C947F070C947F0738
:100030000C94EC290C947F070C947F070C947F0799
:100040000C947F070C943C250C947F070C947F073D
:100050000C947F070C947F070C947F070C947F0708
:100060000C947F070C94C3290C9499290C947F0756
:100070000C947F070C947F070C947F070C947F07E8
:100080000C947F070C947F070C947F070C947F07D8
:100090000C947F070C947F070C947F070C947F07C8
:1000A0000C947F070C947F070C947F070C947F07B8
:1000B0000C947F070C947F070C947F070C947F07A8
:1000C0000C947F070C947F070C947F070C947F0798
:1000D0000C947F070C947F070C947F070C947F0788
:1000E0000C947F070C94F31E0C94E9150C942222B7
:1000F0000C94C9130C94FD270C94E90C0C941B1060
:100100000C948B270C94481F0C944D270C940628B4
:100110000C94451F0C9431120C941E1B0C94F91571
:100120000C9473160C947C0F0C949A120C940C1172
:100130000C94011B0C9477100C94B0100C945E0E70
:100140000C9405170C9428160C94BF0E0C940C13E9
:100150000C9433280C9496120C944F0C0C94B712F8
:100160000C943A1D0C9499260C94020E0C94391F91
:100170000C9419140C94C3110C94B8280C94CE242C
:100180000C94F4160C94B4220C9423210C94321287
:100190000C94E0240C9486230C943F1B0C94B628FA
:1001A0000C948D1F0C943E170C946C270C945212D7
:1001B0000C9446220C94D1130C9469210C94671E64
:1001C0000C94730D0C942C0F0C94C21E0C94592893
:1001D0000C94CC230C94FB130C948D220C9454247B
:1001E0000C9444160C94ED100C9455120C94EC1CC9
:1001F0000C94D6280C94D91B0C9418230C944523EA
:100200000C94CC0C0C948B110C9488220C94C00F81
:100210000C94D2120C944B130C94A7110C94101D37
:100220000C946C140C946A120C944F120C948D293B
:10023000040004000004070704000000000000029E
:100240000400000404040004040704040000000483
:10025000000000000004040004040000000000008E
:10026000000400040400000400020204040002036D
:100270000400040400040000040400040404040452
:10028000000004040407000400000202000400004F
:100290000400040400040404000400000000000042
:1002A0000000010201029802F31E02010001AE04E7
:1002B0007316030200029602ED1004000100000014
:1002C000391F0502000298028822060200029602E7
:1002D0007710070100019502CE2408020002930264
:1002E000FB13090001000000481F0A0600068D02EA
:1002F00054240B060006870206280C020101A904FB
:1003000055120D04000384023E170E0100019502F0
:100310003A1D0F01000195022816100500057F0205
:10032000B010110400047B02EC1C120600067502DA
:100330004622130400039804D1131405000570022B
:100340008D22150400046C023F1B160300029F045B
:100350004D271708000864021914180200029302BE
:100360001E1B19030003610222221A080008590209
:10037000C3111B0300029F048B111C0400045502CF
:100380000C111D030003A404101D1E0300029F0492
:10039000F9151F0300029F04F4162000010000005D
:1003A0008D29210600064F028B2722000100000044
:1003B000451F230300029F04730D240400044B0215
:1003C0006C142500010000008D1F26040003480264
:1003D0005E0E270500054302D91B28030003A10474
:1003E000332829000000000096122A0001000000B6
:1003F00044162B030103400232122C0300029F0417
:10040000A7112D0600064F02BF0E2E010001AE04FB
:100410009A122F02010293026A12300300033D0276
:10042000FD273105000538020C1332020002930249
:10043000862333030003A4044B1334010001950207
:10044000C913350200029302CC0C360300029F044C
:10045000E9153703000340026921380300029F04B5
:100460006C2739050003350205173A02000296028F
:10047000011B3B0500053002020E3C020002960201
:1004800045233D0400044B02D2123E020101A9049F
:1004900031123F00050000000404070400000404BA
:1004A000070400020404040401070400020400001D
:1004B0000000000000060002024F40029F044E4070
:1004C0000398044C14049B044B40029F044A1003FD
:1004D000A104490C03A404480D02A704470B01AE74
:1004E00004464001A904451204AA04440B01AE04C9
:1004F000431002AF04421503B104004002B40441AA
:100500000E02B604400901B8043F0600000078DA84
:100510009D587B6FDB4612FF2A5B01C15D0F8E2168
:10052000522265FB903F6C59697D8D1D378A9B3B3C
:100530001C0EC49A5C490BF35572695B2DFCDD3BC4
:100540008FDD25252BE9DD050EB48FD99DD979FEE8
:1005500086BF8FEE3B9D67C9A36A5A5D95EDE86C37
:10056000B44ED333F1D71FE6F3EF45743C3D1E8BF9
:100570007B5D7646E72DAEDEDC890B3BFD5E84C7F6
:10058000617C1C8E83781C84D1E86894564521CB0D
:100590000C2EF97D24F3BC4AA55149A5B356A455A8
:1005A000579A776FD2D159101D014B63805722D3D0
:1005B0000701DBB03E208807FB59E6F6EBAAA51F32
:1005C0005DBE7BD389BACBF3A4AB893E3CE90FFC7B
:1005D000DAA966EBAF04011E90BA51AD498C4E1FEB
:1005E0005A9E9946966DA14DE2980A5DC2FBAD7C7C
:1005F000C03FCD956C9276D399AC7A2A4767537CED
:100600005AB9D2EB449632AFD6892EBD5C24D0E8DD
:100610002C1A7B1A2B8CA3E069D23F70E22933BDE0
:10062000D646E649D599DDFBC4A3CC3B85F34CAD5A
:1006300064979BC42F14F239C9BA461AB016710ECA
:100640007BCE0A746FAA7AE7AE74A02CD11A55D764
:10065000AA190813CCFCE94D369DCE4EC6EE74D3D4
:10066000265618E506D9D48F223F8AFD68E6472A28
:10067000975BAF711031F64C74983A0630045DB157
:100680004DC051F0170C0EC6E24371E00F95AAAAB7
:10069000F5B3CA5F29BD5765FD541C5063BA0553B5
:1006A000F6A6B74ADC74FB6A8595577A0D7AFE6D1B
:1006B000B532FF1387FFC66EC1497F7FADF79FB686
:1006C000B3E95DD151E19A1BDAADA468D7EFDEFC46
:1006D0000D622F38DD39FBA4CD06E44E52E791A020
:1006E000B7B0A730B3D3D0DB3CF5366FD3FCC18FA6
:1006F00075E687DB324D76CD2BD2224BF62D3E9917
:100700000C3890CF79D1619A58CFCC74E386852E7E
:1007100013F45D082DA31AD01ADECC61493770E4BA
:10072000F42F331BD51415F8719DAB035A196E279E
:10073000665B2B7E776F5253A49D6CBC359BE7E4C0
:10074000556A11C62FDE6B4C208562AF03293275C6
:10075000DF815F42AC65D248D67B1CBA7538B51EC6
:100760006C047EA35112325A93A906EF476FA71B60
:10077000A73347F0D468A35E5108D60710825A55B4
:10078000A19AB52AD32DE90B9402D909023F593712
:10079000F05A2009684ABADC54857A950D5B59D421
:1007A0004397B5739F0B77B3253CC5FB30BC64DC26
:1007B0005F4EB91664904679C79AF5DBAD32FBA659
:1007C000B739DC25217728047DAE342456FD1B8AF9
:1007D00081E611699372E6381AADE122121E9E3A43
:1007E000B3532282B7DAEDAE46E38CCEE0229BC44F
:1007F000803DA8043CD3A7611CB339A6D33D32B4D5
:100800009423EBAD1602334C514595E9D5360117CB
:10081000F077358A424DD83A0112E02E1F8BEC3129
:1008200036F52E3DAE25B9B2F13F61426BF27DF651
:1008300013B0A3CE546980B9A8562BE042C1D66745
:10084000EEA391CB8BF48C035740A9652BBD2A5B9B
:10085000FFA73714BD37D894D9CFA0A8AEE1E046A2
:10086000A50F83FA124E9C0C8722F62B257AC066C0
:10087000870B46C029DDD729722E5F4A0649C3F28D
:10088000DE5035815F0D4280AE808332A093D00E62
:10089000E93C3BD6BE3470005CA485A7641DE8E249
:1008A0004095F672F7A1114683237BB5629F7C8346
:1008B0000F190FE80F15187F08C0439F58236403D2
:1008C000D20F85DAC30C40C434A57AB6CF8444EB8A
:1008D000DD43374C73C2448EEB9F544C10180F60AD
:1008E0002D3AE86BD1D4ED1A2CEAC3946C6B3CC45E
:1008F000911AD47A3045DC1F41053CC9460DCF160C
:10090000BAAD5C022EAA561F2A4DAF2E9D467C29F9
:1009100061BC559F7B0651818AA7AAF7AD2411C5FA
:10092000BB545FC9112152411DE1EC3BF0A0299D50
:10093000E74487290A729FC6D2EF5365000AB34580
:100940006847A5940E7CB6E0B2079AEFEA0CC1F4B2
:10095000015FECCD1E8F5F5C7D43047E7E394FAE20
:10096000CFFF89591BA3F0E26E99DC5EDD2C1114D8
:1009700000CABFBD981CDD5E84F03F180D36CD1354
:100980006D5E8E8F6E2F7163FEE1E3FCA7E4FDA721
:10099000C5CF088DC7F4EF68743DBF032A690AB557
:1009A0009661148F81F0F6CB35730BD1453F2DE660
:1009B0008BAB5F16C997AB9BCB8F5F109384B8B896
:1009C0005C7C82459642355AE6C86B01BC16C80B62
:1009D00076AFCE3F2417E77797780DB35A7E3EFF68
:1009E000BC4C9677D7CB9F6167B9C09D189717B756
:1009F000C9E5E2C3F9BF46676F8317AC3B1D1446D8
:100A00008257D47F587489437A13EA069C06E7B765
:100A1000E7E3D1D9BFC74727FF01B12F707CC2E3FD
:100A2000398EA101A0C9254E2011D0648113C81DA3
:100A300034798F93A93DFF034DEC053FE224B217B3
:100A4000FC0327337BE6276263CF7CA0099E796194
:100A50006FB58292655050ACAA3A85D86D00492492
:100A60003AB3E61464F615A75AAE50E739BAC95638
:100A7000B8029A716199CB529495115DAB04D6C6B8
:100A80002610ABAA1160A4BFBBB96E7137A3755A0B
:100A90006A39C6E1E85F8C906DABD7E4AD8C8479A0
:100AA000953227518BA78D2A5D29173235FA51715E
:100AB0003CCCB90914B56CC0C642354DD510327066
:100AC0001B8D8204DE1AC2B8EFA5CE410653098AF7
:100AD00001EC0E289EB84A5F95E0DC3A13AEA3EA1B
:100AE0005B37CEF20C7E1C95ED3E29FDF56B408602
:100AF000A2C8424189E07AE4368BEA51396900E4C0
:100B0000FEA6382ADD36BC5D20746400E75611ABC2
:100B1000BB18C3D673B08E990C9280E7D63242715F
:100B2000143B0530DDE8DADE8E95FE5A3EA3614FB8
:100B3000DC53393B5E432F24D74A00DA833CE75429
:100B4000891BBA45D3D9FA8168130E63BA17EA51E3
:100B5000A15EB0B9F83AD14636609FA7C251235A78
:100B6000FF3A35448D23C442FA0DC2FE466C4AAFAB
:100B700051BD54AB852A6AB3E5DEFFA66262741DDF
:100B8000AE9A37E0A752B08ED0C9294A11C60E37A7
:100B9000C073EDC6E9EE862E6BAE5EDC1ED05689C4
:100BA00081E297B1D2E2716943A56EAA3558A88057
:100BB000474803F57005650284060B2A0C1F04E301
:100BC0009F942BCD19C706B041FB816DD1713121A6
:100BD0002F2110D858B4883045175DE1D69C7F4648
:100BE0004CE9026587D42D5A5AEC9297AED123680E
:100BF00009DC29CC3092FBAF11E0524B7BD25495EB
:100C00005849928E2543E0F279E867AFB306D6BF24
:100C10001D12D40ADC45FD2AA3F1CFF464BC1C0AE2
:100C20005AABE893C55DD976755D3546719852CA61
:100C3000C22AF7459A7493556B56D477FC2984BE23
:100C4000FE0018ECCA07B818639C3F350CD6DB7E53
:100C5000A3FF3CC009A62AF3AD908FB02DEF739788
:100C60006AFCFB4F0937133B781997FC3DA07E26A1
:100C70003E6699808A708F086085FD5BFB1D833F0F
:100C80008FCD49A9FE496032F9D87087C5FE098821
:100C9000843DFAD9604F03BFBA35E8EEB0C84D368F
:100CA0007DD9725EE5BE7765DC25B588DC4B955B4A
:100CB000F749619B9CCB177D4211A4E35C36649796
:100CC0001924FE577D2B667E28AB93E0248AA0363C
:100CD0001CB9494C0D004FE2889C0226713C83F1FF
:100CE000E4E585406E0D8944F1C73887FF77FA3512
:100CF0000AC4E410389D4DFB6F6A3B27E400DC0B0F
:100D0000DA612034C3EF1584A57B0814FB6F1850FB
:100D10006B6CCF46208B7A3BCABE490FD681C499F3
:100D200098C1CC69DF34B7E099BE079E0D1ADC1D6F
:100D3000D9A0DB05F3D88F2883A67536E9AD9E3898
:100D4000B5F4AD19CFED33667DD33520F5DD17232E
:100D5000BF632405530C4416FB159BF518831EE155
:100D60008EE1C780193A471FE5AE0D3B7C7C0FCC66
:100D7000FE99F49145A370071C9E308EF01F5F8191
:100D80004B57D89FF65736D100A5EE2154EED60129
:100D90008F0082D9754B6B8F6FF950C7D984D51FDF
:100DA000F740F7B5FC087149F653C4B8842C367A7D
:100DB000BDA156A4F7240C0DFB851A10E3E3F878C7
:100DC000763C7E1B0451F0761D9D4EA7ABE958BDC5
:100DD0000DC7E118FE8224184FC349FCB64AC1432F
:100DE000F4E8E50F01189AACDA08000020002300AF
:100DF000260029002C002F00320000010000030112
:100E0000060109010F4700440045008001354800F4
:100E10004400450020010D88008000810080000E04
:100E20008A008000810020000F8C00800081000873
:100E3000000CB300B000B10080033EB400B000B1BC
:100E4000002003239800900091008000249A0090D5
:100E50000091002000259C009000910008003BA814
:100E600000A000A10080003CAA00A000A10020007A
:100E70003DAC00A000A10008005B28012001210179
:100E800080005C2A012001210120005D2C0120014D
:100E90002101080028292A2B2C2D2E2F5051525386
:100EA0005455565711241FBECFEFD1E2DEBFCDBF40
:100EB00000E00CBF14BE0FB6F894A89580916000B6
:100EC000886180936000109260000FBE12E0A0E085
:100ED000B2E0E2E5F5E500E00BBF02C007900D923D
:100EE000A432B107D9F723E0A4E2B2E001C01D9219
:100EF000A839B207E1F70E9454260C94A72A0C9453
:100F00000000CF93DF93CDB7DEB765970FB6F894A7
:100F1000DEBF0FBECDBF0E9441266B017C018091D8
:100F20007402882309F43CC30E944126C61AD70ADA
:100F3000E80AF90AF89480917402882351F08FEF3F
:100F40008093740278940000F89480917402811167
:100F5000F9CF78940E944126A7019601260F371FEA
:100F6000481F591F288B398B4A8B5B8B81E08093FC
:100F7000740280916602882319F1109266028FEF45
:100F800089838E010F5F1F4F6CEE7CE1C8010E94C8
:100F9000D0160097A9F0DC0157962C9122FFF4CFD0
:100FA000AC01495E5F4FBC01685F7F4F89810E9441
:100FB000A5246CEE7CE1C8010E94D016009759F779
:100FC00080916F02882311F110926F028FEF898355
:100FD0008E010F5F1F4F66E873E2C8010E94D016B2
:100FE000FC01892B99F0958D868D9813F4CFF89498
:100FF000858D968D891709F426C3789466E873E287
:10100000C8010E94D016FC01892B69F780913B0230
:10101000882309F454C010923B028FEF8B870FE0B6
:10102000B02E6BE473E1CE010B960E94D0161C012A
:10103000892B09F444C0D10157968C91579780FFB2
:10104000F0CFF894F10144805580668077808789DD
:101050008E7F878B789456968C91813009F44CC2A0
:1010600008F424C2823009F4E1C18330D1F6AB84A4
:1010700019861A869E01275F3F4F42E061E0F10129
:10108000848995890E940A1589849A8498248924E0
:101090009824740100E010E0B101605F7F4FC12C23
:1010A000A3019201C1010C960E94741382FEB9CF74
:1010B000809172028111B5CF8DE10E944717809116
:1010C0003202882301F1109232028FEF89838E0160
:1010D0000F5F1F4F6DEE70E1C8010E94D0160097A0
:1010E00091F0DC0158962C912F3FA1F7F894FC0168
:1010F0002685211135C278946DEE70E1C8010E94F9
:10110000D016009771F780913102882309F43FC00F
:10111000109231028FEF89838E010F5F1F4F62E0C3
:101120007EE0C8010E94D016009789F1DC011E966E
:101130002C911E9723FFF3CFF894FC012685277F7F
:10114000268778949C01265E3F4F3F932F935096BD
:101150008C918695869586951F928F9389811F9293
:101160008F93E9EBF4E0FF93EF930E944E174DB796
:101170005EB7485F5F4F0FB6F8945EBF0FBE4DBFBE
:1011800062E07EE0C8010E94D016009779F6A8952B
:1011900080917302882329F080E48093600010928C
:1011A000730210913503112309F46DC000912402DC
:1011B00000FD12C0153008F466C0D0907502FD2CF9
:1011C0008BEF8D0D8C3308F412C2EEE7FE1609F496
:1011D0005CC2016000932402412F50E06EE770E092
:1011E00085E792E00E94782A009739F00E7F0093FD
:1011F00024028557924011E0180F01FD0CC0902F7A
:1012000092609093240283E994E09F938F930E94CD
:101210004E170F900F90D12ECC24CA9480E00D2D44
:1012200010E018C090E04E2D50E0481B590BB8015B
:10123000680F791F6B587D4F8B589D4F0E948E2AE7
:10124000109274028E2D9FB7F89420913503F216F8
:1012500061F09FBFF0903503EF2CED1819F79FB7A1
:10126000F89420913503F212F4CFE09235039FBF3A
:10127000F1E0CF1208C083E994E09F938F930E941E
:101280004E170F900F900E9441266B017C01288918
:1012900039894A895B89621B730B840B950B80909B
:1012A0002D0290902E02A0902F02B09030023FEFBE
:1012B000831A930AA30AB30A80922D0290922E02F7
:1012C000A0922F02B09230024090290250902A0240
:1012D00060902B0270902C02460E571E681E791EDD
:1012E0004092290250922A0260922B0270922C02A4
:1012F0006115710541E08407910508F056C19B0115
:10130000AC010E94F729DC01CB0181509F4FAF4F08
:10131000BF4F892F9A2FAB2FBB27409125025091A9
:1013200026026091270270912802840F951FA61F44
:10133000B71F84179507A607B70718F48FEF9FEF1D
:10134000DC018093250290932602A0932702B0939C
:10135000280240916B0250916C0260916D02709175
:101360006E025C546B437B4F2F2DC416D506E606E8
:10137000270B27FDD4CDBF93AF939F938F937F927D
:101380006F925F924F92BF92AF929F928F9285EF32
:1013900094E09F938F930E944E178DB79EB70E9641
:1013A0000FB6F8949EBF0FBE8DBF80916B029091D7
:1013B0006C02A0916D02B0916E02C816D906EA06C1
:1013C000FB0698F48091670290916802A0916902EF
:1013D000B0916A020196A11DB11D8093670290939E
:1013E0006802A0936902B0936A02C0926B02D09225
:1013F0006C02E0926D02F0926E0210922502109241
:1014000026021092270210922802109229021092AE
:101410002A0210922B0210922C0210922D0210928E
:101420002E0210922F021092300279CDAB8481E00F
:1014300089831A821B821C829E012F5F3F4F43E0EB
:1014400061E0848995890E940A1569817A818B817E
:101450009C810E94072A272F382F492F55272C8738
:101460003D874E875F8737E039831A829E012F5F61
:101470003F4F42E061E0D10154968D919C91559788
:101480000E940A15EC84FD840E851F850027112714
:10149000B101605F7F4FCA80A3019201C1010C9628
:1014A0000E947413BC85B0FFBCCD02CEAB841D82FC
:1014B0001E821F8218869E012B5F3F4F44E061E031
:1014C000F101848995890E940A156D817E818F8141
:1014D00098850E94072AD62EF72EB101605F7F4FB4
:1014E000C12CED2C8C01A3019201C1010C960E942C
:1014F0007413D2FE96CDDCCDAB84FCE0F9831A8266
:101500001B821C829E012F5F3F4F44E061E0D101AE
:1015100054968D919C9155970E940A1569817A8104
:101520008B819C810E94072A6B017C01B9821A82FF
:101530009E012F5F3F4F42E061E0F1018489958970
:101540000E940A15870176011127B101605F7F4F64
:10155000CA80A3019201C1010C960E94741361CD4F
:10156000318D308F7894AC01415F5F4F5F934F9323
:101570001F922F93FC0187891F928F9389811F925D
:101580008F932EEB34E03F932F930E944E178DB72D
:101590009EB70A960FB6F8949EBF0FBE8DBF9ACD28
:1015A000C88AD98AEA8AFB8AE1CC6115710550E1C3
:1015B0008507910508F0C2CE8B019C0101501F4F99
:1015C0002F4F3F4F5527432F322F212F0E94F729AE
:1015D000DC01CB0140912502509126026091270247
:1015E00070912802840F951FA61FB71FA2CEE0900E
:1015F00076028E2D807F803109F0E7CD1D1508F42D
:1016000042CE8D2D90E0FC01EC58FD4F20812E370D
:1016100009F0DBCDDC01AE58BD4F1D01FC01ED58DA
:10162000FD4F90818C91292F30E05901B82A6DEF40
:101630006D0D85E792E00E945726A816B90639F18C
:10164000F0907502C2CD54896589908921893289CB
:1016500043898F5F858F78946F935F934F933F9308
:101660002F939F9389811F928F93EDECF4E0FF936A
:10167000EF930E944E174DB75EB7465F5F4F0FB6B0
:10168000F8945EBF0FBE4DBFA6CC11E0C4CD802F35
:101690008D7F8093240280910902E812FEC081E0D0
:1016A0008E0D8F70806180930902B7E72B16B2E030
:1016B0003B0609F008F4BAC0E7E7F2E0ADB6BEB603
:1016C0008F010F5F1F4F2081222309F4E3C0E2E95D
:1016D000F4E08491281708F0DDC030E0220F331FBA
:1016E000220F331F220F331FF901E556FD4FE491FE
:1016F0004DB75EB784E0E89F4019510911240FB639
:10170000F8945EBF0FBE4DBF8DB79EB70196F9012D
:10171000E356FD4F4491F901E256FD4F65917491F6
:10172000FB01640F711DAC01BD86AC869D8B8C8B5B
:101730006E177F0709F47FC02016310638F1A49197
:10174000A53038F1A73011F52801BFEF4B1A5B0A1D
:10175000D8016C908201060D111D20163106B0F0E3
:10176000862C912CA12CB12CDA018D929D92AD92F8
:10177000BC921397612C712C14964D925D926D92D0
:101780007C921797485F5F4F3196D2CF87E00E94D7
:1017900047177A0194E0E90EF11C5801AFEFAA1A3D
:1017A000BA0AD8011C91912F9F77492E512C612C98
:1017B000712C012F0076003691F117FF3AC0850198
:1017C0000F5F1F4FD80111978C91440C551C661C5C
:1017D000771C440C551C661C771C440C551C661C5D
:1017E000771C440C551C661C771C440C551C661C4D
:1017F000771C440C551C661C771C440C551C661C3D
:10180000771C982F9F77492A87FDDACFDA014D920E
:101810005D926D927C921397A701319689CFB0EEBD
:101820004B2A55245A94652C762CC7CFCC24C394CC
:10183000F5CC8501EBCFAC84BD848C899D8940912A
:101840007202442331F0F901E456FD4FE491E0FFC8
:1018500011C020563D4FF90125913491F901199598
:101860000FB6F894BEBE0FBEADBE02151305F0F65E
:10187000F80124CF809147021F928F93E4E0F5E0B6
:10188000FF93EF930E944E170FB6F894BEBE0FBEA3
:10189000ADBEEBCF85E00E9447171D2DB4CCCF9293
:1018A000DF92EF92FF92CF93DF93FC01A085B18589
:1018B00082858C93968581E089278687C82FC170A1
:1018C000C688D788E08CF18C97859F5FD1899D175A
:1018D00008F05FC0892F869586958695DF01A80F51
:1018E000B11D5A962C9130E0892F877002C0359532
:1018F00027958A95E2F72170B701A601C217A9F0D2
:1019000033C0892F869586958695DF01A80FB11D76
:101910005A962C9130E0892F877002C03595279513
:101920008A95E2F72170C2131FC04C0D5D1D6E1D1C
:101930007F1D9F5F9D1728F380EC9FE09383828338
:1019400084819581A681B781480F591F6A1F7B1F2B
:10195000448355836683778381E0DF91CF91FF9045
:10196000EF90DF90CF900895978784819581A6812D
:10197000B781480F591F6A1F7B1F448355836683B5
:10198000778381E0DF91CF91FF90EF90DF90CF9050
:101990000895B701A601D0CFCF92DF92EF92CF93F7
:1019A000DF93EC0160E08C810E9408256B01E82E3A
:1019B00047E050E06CEC7CE088810E942520FC012F
:1019C000C082D182E282DF91CF91EF90DF90CF9001
:1019D0000895CF92DF92EF92FF920F931F93CF93D0
:1019E000DF93EC01E885F9858A8580830E94412692
:1019F0003E8521E023272E872F852F5F2F872130DB
:101A000009F45CC02530E0F40C811D812E813F81FA
:101A10004A895B896C897D89DB01CA01800F911F2E
:101A2000A21FB31F8C839D83AE83BF8381E0DF91B0
:101A3000CF911F910F91FF90EF90DF90CF9008957D
:101A4000CC80DD80EE80FF80AB01BC014C195D09CC
:101A50006E097F098E899F89A88DB98D481B590B06
:101A60006A0B7B0BDB01CA010296A11DB11DB7FDFC
:101A700034C0B595A79597958795B595A7959795F2
:101A800087950A891B892C893D89800F911FA21F88
:101A9000B31F8E8B9F8BA88FB98F2FE43CE03B83C5
:101AA0002A834C0D5D1D6E1D7F1D840F951FA61F83
:101AB000B71F8C839D83AE83BF83B8CF0C811D81FC
:101AC0002E813F81AB01BC01401B510B620B730B9C
:101AD0004E8B5F8B688F798F9BCFDB01CA01059698
:101AE000A11DB11DC6CF4F925F926F927F92BF92A0
:101AF000CF92DF92EF92FF920F931F93CF93DF93DA
:101B0000EC016CEC7CE088810E94A01F8C018C8130
:101B1000E884F984F801438054806580768098E0F9
:101B2000B92EE701C80FD11D0E944126DC01CB016F
:101B300084199509A609B70980329340A105B1051A
:101B400098F3F801608171818281A0918400B09145
:101B500085006701CC15DD0509F44CC0F6019191B3
:101B60006F0128E013C0F8944091840050918500E3
:101B7000FB01808380837894FA01EA1BFB0BE0343D
:101B8000F105D8F4990FDA01215021F397FFEBCF3B
:101B9000F8944091840050918500FB0180837894F3
:101BA000FA01EA1BFB0BE034F10538F4990FF894C5
:101BB000FB0180837894DA01E7CF40E00E94DD1CCE
:101BC0000E9441262B013C01F801638374838583C5
:101BD0009683BA94B110A8CFDF91CF911F910F9146
:101BE000FF90EF90DF90CF90BF907F906F905F90CD
:101BF0004F9008950E944126F80163837483858382
:101C00009683EACF7F928F929F92AF92BF92CF92AC
:101C1000DF92EF92FF920F931F93CF93DF93EC012C
:101C200044E250E062E07EE088810E9425208C0141
:101C300078848C809D80AE80BF80CC84DD84EE84EF
:101C4000FF8461E0711001C060E0882D0E94A41C37
:101C5000F80163877487858761E08C2D0E940825D1
:101C6000F80160877187828788899989AA89BB89E9
:101C7000828B938BA48BB58B711018C091E08C1460
:101C80009D04AE04BF04C1F080E0892BF801868773
:101C9000DF91CF911F910F91FF90EF90DF90CF9048
:101CA000BF90AF909F908F907F90089591E18C149A
:101CB0009D04AE04BF0441F780E2E7CFEF92FF92AC
:101CC0000F931F93CF93DF937C0162E07EE0FC01D2
:101CD00080810E94A01FEC011E8511FD3DC0F7010F
:101CE000048160857185F4840B3008F045C0FAE00A
:101CF000FF1508F441C0402F50E04A960E94852A03
:101D00001F86117312601E87802F880F880F880F1F
:101D1000898BFF0CFF0CFF0CF88A011124C08A8903
:101D20009B89AC89BD898E8B9F8BA88FB98F8FE4DF
:101D30009CE09B838A83F8940E944126DC01CB01BE
:101D40008058934FAF4FBF4F8C839D83AE83BF832B
:101D5000CE010E940F297894DF91CF911F910F91AE
:101D6000FF90EF9008958A8D8F738A32C1F689EEC5
:101D70009CE09B838A83DFCF85E20E944717DF9236
:101D8000EF92FF920F931F93CF93DF93EC01D888CC
:101D900083E08D15B0F16BEF73E188810E94A01F85
:101DA0007C018AE090E00E9402208C0161E08C813D
:101DB0000E94A41CF80160837183828360E088859F
:101DC0000E940825F80163837483858360E08C8515
:101DD0000E940825F801668377838087D186F70102
:101DE0008581982F967081F4F701118300838260BA
:101DF0008583DF91CF911F910F91FF90EF90DF903E
:101E000008958CE10E9447170E946914CF93DF93D5
:101E1000EC018E8585FD0DC0688579858A8541E058
:101E20000E94DD1C8E85807381608E87DF91CF914B
:101E30000895E885F9858A852FB7F8949281982BC3
:101E400092839181892B81832FBF8E8580738160DE
:101E50008E87DF91CF910895CF93DF93FC01A38507
:101E6000B4855C918785982F977021E030E001C0A0
:101E7000220F9A95EAF7982F969596959695DF01F9
:101E8000A90FB11D5A969C915A9745854523E1F0BB
:101E9000292B5A962C938F5F90898917E8F48787AE
:101EA000448155816681778186899789A08DB18D1E
:101EB000840F951FA61FB71F84839583A683B783BE
:101EC00081E0DF91CF910895209529235A962C9394
:101ED0008F5F9089891718F3EF01CF010E94060FD9
:101EE0008E8588608E871092740281E08093310223
:101EF00080E0DF91CF910895CF93DF93FC01A3851C
:101F0000B4859C9185858923E9F0868584608687E0
:101F1000878591E0980F9787803408F54481558133
:101F20006681778186899789A08DB18D840F951FF1
:101F3000A61FB71F84839583A683B78381E0DF91B3
:101F4000CF910895868582FFE3CF17868CE29FE0CC
:101F500093838283CF01DF91CF910C942C0FEF01FB
:101F6000108ACF010E94060F8E8588608E8710929E
:101F7000740281E08093310280E0DF91CF91089577
:101F80000F931F93CF93FC01C089CC23E9F1868581
:101F900085FD23C017868CE79FE093838283868923
:101FA0009789A08DB18D880F991FAA1FBB1F880F1D
:101FB000991FAA1FBB1F4481558166817781840FB9
:101FC000951FA61FB71F84839583A683B783C1E09F
:101FD0008C2FCF911F910F910895A385B48595857E
:101FE0002FB7F89484FF21C012968C911297892BF9
:101FF000909512968C93129711968C911197982325
:1020000011969C932FBFC6CF8C010E94060FF8013A
:102010008685886086871092740281E08093310201
:102020008C2FCF911F910F91089512968C9112973A
:1020300090958923DECFCF93DF93EC016A8D6623E1
:1020400009F453C0FC0150E031E020E0A38DB48DD1
:102050004C91958D942309F0532B2F5F330F3396BA
:102060002613F4CF2C85922F952729F08D8585276F
:1020700080959823D9F4888D5D8787FD03C08150B2
:1020800070F1888F4C815D816E817F818885998513
:10209000AA85BB85840F951FA61FB71F8C839D83C0
:1020A000AE83BF8381E0DF91CF910895982F909503
:1020B00029238523822B8C879E859830E0F621E0AA
:1020C000290F2E87FE01E90FF11D878710927402F8
:1020D00081E0809332028FEF888F5D87D3CF10929B
:1020E000740291E090933202CCCF50E0BBCF0F93BB
:1020F0001F93CF93DF938C016DEE70E1DC018C9127
:102100000E94A01FEC01D8011496EC918F898E0FCC
:102110008F8BF8948E85E817D0F48E1BF0E03F96F5
:10212000EC0FFD1FDE011F962FEF280F30E0205F20
:102130003F4F2C0F3D1F91919D93A217B307D9F7E5
:102140008E877894DF91CF911F910F9108951E860D
:102150008EEF888F7894DF91CF911F910F91089522
:102160000F931F93CF93DF938C016DEE70E1FC0111
:1021700080810E94A01FEC010E94D928F80184816F
:102180009581A681B7818C839D83AE83BF83408573
:10219000518562857385488759876A877B878089DF
:1021A0008D878C871E861F8A8EEF888F8485898F06
:1021B00087FD10C0452B462B472B29F4DF91CF918B
:1021C0001F910F910895CE01DF91CF911F910F9133
:1021D0000C940F2982E20E944717CF93FC01C4811F
:1021E000C930B8F44C2F50E09A01220F331F420F30
:1021F000531F455E5F4F6DEE70E1FC0180810E94D0
:102200002520FC01C28F2BE130E133832283CF9163
:10221000089584E20E9447170F931F93CF93DF9393
:102220008C016DEE70E1DC018C910E94A01FFC011D
:10223000D80114969C91828D9817B8F4292F30E01C
:10224000E901CC0FDD1F2C0F3D1FEF01C20FD31F83
:10225000F801648580850E94A41C6B8F7C8F8D8F14
:10226000DF91CF911F910F91089583E20E9447174C
:102270005F926F927F928F929F92AF92BF92CF9216
:10228000DF92EF92FF920F931F93CF93DF938C0116
:10229000FC01C080D180E280F38084809580A6809C
:1022A000B78066246A94660E662301F1EA01712CF8
:1022B000FFEF6F1A7F0A640E751E59900E94412627
:1022C000DC01CB018C199D09AE09BF098815990560
:1022D000AA05BB0598F3652DC8010E945C280E94E1
:1022E00041266B017C01C615D70539F7F801C0827C
:1022F000D182E282F382DF91CF911F910F91FF9003
:10230000EF90DF90CF90BF90AF909F908F907F9095
:102310006F905F9008950F931F93CF93DF93EC011D
:1023200063EC71E188810E94A01F8C01FC01618532
:102330007285838541E00E94DD1C488559856C814A
:10234000C801DF91CF911F910F910C9438110F9319
:102350001F93CF93DF93EC0163EC71E188810E94BE
:10236000A01F8C01FC0161857285838540E00E947D
:10237000DD1C488559856C81C801DF91CF911F9183
:102380000F910C943811CF92DF92EF92FF920F933E
:102390001F93CF93DF93EC014BE150E063EC71E1CD
:1023A00088810E9425208C0160E08C810E94082594
:1023B000F80161877287838760E088850E9408251D
:1023C000F80164877587868760E08C850E94082500
:1023D000F8016787708B818B60E088890E940825EF
:1023E000F801628B738B848B60E08C890E940825D6
:1023F000F801658B768B878B60E0888D0E940825BD
:10240000F801608F718F828FF8940E9441266B01D2
:102410007C0160E0C8010E945C280E9441267894FB
:10242000DC01CB018C199D09AE09BF09CC8CDD8C78
:10243000EE8CFF8C8C159D05AE05BF0548F4C81ABF
:10244000D90AEA0AFB0AF801C482D582E682F78239
:10245000DF91CF911F910F91FF90EF90DF90CF9080
:1024600008950895FC018081A481B581408551853E
:10247000628573859FB7F894813061F0823019F0DE
:102480004C939FBF08954D935D936D937C931397E9
:102490009FBF089511965C934E939FBF089585E169
:1024A0000E94471782E10E944717FC0185818F93A4
:1024B00084818F9380811F928F9381EE94E09F930C
:1024C0008F930E944E170F900F900F900F900F90C8
:1024D0000F900895DC012C911496ED91FC911597C5
:1024E0003FB7F8942130E9F02230B1F0808190E0DC
:1024F000A0E0B0E03FBFBF93AF939F938F938CED6D
:1025000094E09F938F930E944E170F900F900F901F
:102510000F900F900F90089580819181A281B381D7
:10252000E9CF80819181A0E0B0E0E4CF83E392E045
:102530000C94D928CF93DF93EC0183E392E00E94BF
:10254000D928E3E3F2E082E592E1938382838881F4
:102550009981AA81BB8184839583A683B783CF01A8
:10256000DF91CF910C940F298EE00E944717FC0158
:102570001092740281E080933B0287898160878B8F
:10258000448155816681778180859185A285B38557
:10259000840F951FA61FB71F84839583A683B783D7
:1025A00081E00895EF92FF921F93CF93DF93EC01A8
:1025B0008C85182F1F7741E050E062ED72E1888131
:1025C0000E9425207C018C819D81AE81BF81892B59
:1025D0008A2B8B2BF1F48091BC0082FD10C061E04E
:1025E00089E10E94082561E088E10E940825109297
:1025F000B90088E48093B80084E08093BC00812F08
:10260000880FF7018083DF91CF911F91FF90EF90AA
:1026100008958EE20E9447170F931F93CF93DF9385
:102620008C016BE473E1FC0180810E94A01FEC012E
:102630000E94D928F80184819581A681B7818C8375
:102640009D83AE83BF8380859185A285B38588876E
:102650009987AA87BB87892B8A2B8B2B29F4DF913B
:10266000CF911F910F91089584859585A685B78593
:102670008C879D87AE87BF8780899189A289B3891E
:10268000888B998BAA8BBB8BCE01DF91CF911F9149
:102690000F910C940F29FF920F931F93CF93DF9309
:1026A000EC01F88483E08F15E0F048E150E06BE442
:1026B00073E188810E9425208C0187EB92E1F8016B
:1026C000938382836BEF73E18C810E94A01FF801DA
:1026D000958B848BF68ADF91CF911F910F91FF909C
:1026E00008958FE10E9447174F925F926F927F92F9
:1026F0008F929F92AF92CF92EF92FF920F931F9380
:10270000CF93DF93EC014B01270138011F92CF9249
:102710007F926F925F92EF925F934F933F932F93CD
:102720001F92AF9283EC94E09F938F930E944E1779
:102730008DB79EB70E960FB6F8949EBF0FBE8DBF95
:1027400088819981AA81BB81E816F9060A071B07CF
:1027500050F0F40180819181A281B3818E159F0593
:10276000A007B10720F480917202882379F0DF91ED
:10277000CF911F910F91FF90EF90CF90AF909F90CE
:102780008F907F906F905F904F9008958EE10E94A0
:10279000471746E050E06BEF73E1FC0180810C9439
:1027A0002520CF92DF92FF920F931F93CF93DF9359
:1027B000EC016BEF73E18C810E94A01F6C01F88427
:1027C0000F2D10E0A8014D5F5F4F61ED73E188812F
:1027D0000E942520FC01D182C082F2826C857D8519
:1027E000A8010396DF91CF911F910F91FF90DF9089
:1027F000CF900C94852A0F931F93CF93DF938C0176
:1028000046E050E06BEF73E1FC0180810E942520DF
:10281000EC0161E0F80184810E9408256A837B83D2
:102820008C838D8181608D83DF91CF911F910F917A
:1028300008950F931F93CF93DF938C0166E873E2A3
:10284000FC0180810E94A01FEC010E94D928909178
:1028500000028A8D981303C08FEF80930002F80165
:1028600084819581A681B781888B998BAA8BBB8B3C
:102870008C839D83AE83BF8380859185A285B3853C
:102880008C879D87AE87BF8784858E8F91E0980F58
:102890009D8F4089518962897389488759876A87E2
:1028A0007B87248935893F8B2E8B208D318D398F05
:1028B000288F948D9C8F811105C0DF91CF911F913E
:1028C0000F910895CE01DF91CF911F910F910C943C
:1028D0000F298CE10E9447178F929F92AF92BF926F
:1028E000FF920F931F93CF93DF93EC016BEF73E194
:1028F00088810E94A01F8C01F88483E08F1508F462
:1029000084C0F8018581867009F07FC08C849D8425
:10291000AE84BF848C819D81AE81BF81892B8A2B3F
:102920008B2B09F074C0EEEEFDE0A591B4911196E9
:102930008C9180FD04C060E088E00E94082560E082
:1029400089E00E94082560E08AE00E94082560E096
:102950008BE00E94A41C80E58CBD1DBC8114F2E1BB
:102960009F06FAE7AF06B10408F041C0811489E080
:1029700098068DE3A806B10418F5E0E88E16E4E8A1
:102980009E06EEE1AE06B104C0F5F0E48F16F2E467
:102990009F06FFE0AF06B10468F580E2881681EA81
:1029A000980687E0A806B10458F590E0E0E98E1695
:1029B000E0ED9E06E3E0AE06B10428F583E002C038
:1029C00090E080E0CF2DCC0FCC0FC065C82BF80174
:1029D000C0839183858184608583DF91CF911F912E
:1029E0000F91FF90BF90AF909F908F90089591E0CE
:1029F00080E0E8CF90E081E0E5CF91E081E0E2CFB8
:102A000091E082E0DFCF82E0DDCF0E9469148AE2AC
:102A10000E9447178F929F92AF92BF92CF92DF9200
:102A2000EF92FF920F931F93CF93DF934C01E62E0B
:102A3000142F6901DC0115968C911597982F9670CB
:102A400009F462C081FD6DC0F401908181819CBD5B
:102A50008DBDD40115969C91159790FD71C091FF85
:102A60007AC0D401CD91DC91AA24AA94A10E11239D
:102A7000A9F1B12CBFEFAB1ABB0AAC0CBD1CF6011F
:102A8000F08008E010E0898580FF7AC0EE81FF8148
:102A9000888580834F2D40786B817C818D810E9459
:102AA000DD1CFF0CEE81FF8188858083110FE8819A
:102AB000F98190818A81892391E009F490E0192BB2
:102AC000015009F7EE2011F0D6011C93BFEFCB1A8D
:102AD000DB0ACA14DB0499F6F401958190FF14C057
:102AE000D40112966D917D918C9141E0DF91CF914F
:102AF0001F910F91FF90EF90DF90CF90BF90AF901C
:102B00009F908F900C94DD1CDF91CF911F910F91BE
:102B1000FF90EF90DF90CF90BF90AF909F908F90FD
:102B20000895ED91FC9141854270668177818085A1
:102B30000E94DD1CD40115969C91159790FF8FCFB4
:102B400012966D917D918C9140E00E94DD1CF40104
:102B5000958191FD86CFEE2071F18FEF810F1123CA
:102B600009F4BCCFF60190819EBD0DB407FEFDCFE8
:102B70009EB591938150B8F7D40115969C91AECF34
:102B80004F2D40786B817C818D810E94DD1CFF0C74
:102B9000EE81FF8188858083110FE881F981908122
:102BA0008A81892391E009F490E0192BEE81FF815D
:102BB0008885808385CFF6019601210F311D2E1760
:102BC0003F0709F489CF81918EBD0DB407FEFDCF7B
:102BD000F6CFCF93DF93EC016BEF73E188810E9416
:102BE000A01F288539854C8160E0DF91CF910C943E
:102BF0000A15FF920F931F93CF93DF93EC01188177
:102C00006BEF73E1812F0E94A01F0C81F884C985AE
:102C10002F2D3C2F402F61E00E940A15CF93FF9289
:102C20001F920F931F921F9388EC94E09F938F93B2
:102C30000E944E178DB79EB708960FB6F8949EBFA8
:102C40000FBE8DBFDF91CF911F910F91FF9008951F
:102C5000CF9320913D0230913E02232B91F4FC0151
:102C6000C0818C2F90E0880F991F880F991F0E94B8
:102C7000022090933E0280933D02C0933C02CF918C
:102C800008958AE00E944717809162029091630242
:102C900021E030917202311101C020E01F922F9388
:102CA0009F938F93209146022F93209145022F935B
:102CB000209144022F93209143022F9321E0892BEE
:102CC00009F420E01F922F9386EE94E09F938F9358
:102CD0000E944E178DB79EB70C960FB6F8949EBF04
:102CE0000FBE8DBF08950F931F93CF93DF938C0179
:102CF0008091620290916302892B09F04EC060912D
:102D0000610270E0623071052CF482E08093610210
:102D100062E070E0E0913F02F09140024DB75EB793
:102D200041505F4F44275A959F01C0E0D0E0C90150
:102D3000860F971F4817590748F121969C01C11526
:102D4000A4E0DA07A1F78E1B9F0B0E940220D0930C
:102D50006302C093620290934202809341020E94F8
:102D6000B81FF80180819181A281B38180934302D1
:102D700090934402A0934502B093460280E090E015
:102D8000DF91CF911F910F910C944416209711F071
:102D9000C901D9CF80E10E9447178DE00E944717F3
:102DA000CF93DF93EC01988140913C02A0913D02CA
:102DB000B0913E020BC0FD0184E0989FE00DF11D33
:102DC0001124208131812617370741F09F5F941726
:102DD00090F380E090E0DF91CF9108959883828115
:102DE0009381DF91CF910895CF93DF93EC0162ED52
:102DF00072E188810E94A01F488559856C81FC0181
:102E00008081DF91CF910C94451CCF93DF93CDB798
:102E1000DEB78C0162ED72E1FC0180810E94A01F8F
:102E2000F8012481A085B18544855585668577851F
:102E300040FD21C030E07695679557954795C901CB
:102E4000840F911D4DB75EB7481B590B0FB6F89410
:102E50005EBF0FBE4DBFEDB7FEB7319621153105F0
:102E600039F02E0F3F1F8D918193E217F307D9F7A9
:102E70008BE20E94471780E20E94471762ED72E1E1
:102E8000FC0180810E94A01F8BE20E944717F894EA
:102E9000682F70E088E492E00E944A2A2F923F92C5
:102EA0005F926F927F928F929F92AF92BF92CF92DA
:102EB000DF92EF92FF920F931F93CF93DF93CDB7E3
:102EC000DEB728970FB6F894DEBF0FBECDBF809156
:102ED00060028823C1F028960FB6F894DEBF0FBEBB
:102EE000CDBFDF91CF911F910F91FF90EF90DF90B9
:102EF000CF90BF90AF909F908F907F906F905F909A
:102F00003F902F90089581E0809360028E01015ED2
:102F10001F4F20919703509096032515C0F4452D1F
:102F200050E0CD8CDE8C3FEFC31AD30AF6018491BA
:102F30003A01680E711CC3018136910554F1821B60
:102F400091098136910560F010926002C4CF109211
:102F500096031092970340E050E0512C20E0E1CF1F
:102F60001092960360919703561AE52CF12C70E0AD
:102F70006A5C7C4FA70186E393E00E948E2A109240
:102F80009703509296038091C10080628093C100A4
:102F9000A7019A012A5C3C4F7901F601A491A63061
:102FA00008F42BC1AA2EB12CF3E0AF1AB108A20E7F
:102FB000B31EED8DFE8D32969491ED8DFE8D339680
:102FC000C590D4902D5F3F4F3E832D83ED8DFE8DB8
:102FD0008491D70112968C933601690E711C788604
:102FE0006F826F807884C614D70409F435C18D8050
:102FF0009E80A814B90448F0F6018491853009F444
:10300000BFC008F441C0883018F086E00E9447171E
:10301000F80120813181F5016D807E80E619F70984
:10302000AF01FF0F660B770B49835A836B837C8359
:10303000A901330F660B770B69807A808B809C80A7
:10304000641675068606970608F4C8C06D807E80F3
:103050002FEF621A720AAD81BE814C931801B4E061
:103060002B0E311CF801228133818A01B90186308F
:1030700009F4B7C0C3010E94852A4301800E911E46
:103080009E828D828101A6C0823008F4AEC083305A
:1030900009F4D8C0F801408151813A01812C912C6A
:1030A0000E5F1F4FD401C3018096A11DB11D803852
:1030B0009105A105B10508F4C2C0A4019301305FD8
:1030C0004F4F5F4F211530444105510508F43FC073
:1030D000D401C30118960097A042B10540F1A401A4
:1030E00093015C5F211531054105504180F0D40109
:1030F000C3015CE1B695A795979587955A95D1F749
:103100008068AD81BE818C931196BE83AD83D4015E
:10311000C30145E1B695A795979587954A95D1F74F
:103120008068AD81BE818C931196BE83AD83D4013E
:10313000C3013EE0B695A795979587953A95D1F747
:103140008068AD81BE818C931196BE83AD83ED8185
:10315000FE813196D401C30127E0B695A7959795D6
:1031600087952A95D1F78068AD81BE818C939F01A8
:103170002F5F3F4F3E832D83462D4F7740832AC0DC
:1031800098012E5F3F4FF801A081B1818D819E8112
:1031900001966C91662399F08A159B0580F4FD01D8
:1031A000319604C0A816B90609F447C00196AC01CF
:1031B00041505109DA016C9361916111F3CFAC0177
:1031C0006D807E80461957094150D3014C939E83F0
:1031D0008D8389012FEFC21AD20A03CFB401A30154
:1031E00035CFC3010E946F2A48CFD8016D907D90E2
:1031F0008D909C900C5F1F4F55CF1A2FD7011C93B9
:103200008091090211968C936DEF610FC7010E94A6
:103210005726E10EF11CF701339790833196808396
:1032200031968EE78083A52DA10FA0939603809100
:10323000C10080628093C10087CEC501C0CFED81FF
:10324000FE8195CFD8014D915C913A01550F8808C8
:1032500099080E5F1F4F26CF0D811E810E191F0981
:1032600013E0100FCBCFCF93DF93CDB7DEB7299705
:103270000FB6F894DEBF0FBECDBF88E993E0909300
:10328000400280933F02FFB6F8941092800001E064
:1032900000938100E4E8F0E0118210828081918146
:1032A000C296909389008093880012E016BB8081BB
:1032B0009181C29690938B0080938A0084E086BBB4
:1032C0008AE192E00E940F2906BB10936F00FFBEB7
:1032D0009DE088E10FB6F894A895809360000FBE3A
:1032E0009093600080E4809360001093C00087E0BA
:1032F00090E09093C5008093C40086E08093C20064
:1033000088EB8093C10089E095E09F938F930E94A2
:103310004E170F900F90F89488E492E00E94282AAC
:103320008C01892B19F478940E948107F8940E94EB
:103330004126F62EE72ED82EC92E809172028111D9
:1033400002C00093470222E020937202A1E0B2E0A3
:10335000B0932302A0932202E2E1F2E0448155817E
:103360006681778114964D935D936D937C93179747
:10337000ED93FC938AE092E09183808380918400B6
:1033800090918500C296909389008093880026BB17
:10339000109260020E94B81F8FEF8987882483945F
:1033A000712C0FC0F80164A175A186A147A10E94EC
:1033B000DD1C882DF80197A1911101C0872DF8011E
:1033C00080A766E472E2CE0109960E94D0168C01B5
:1033D000892B41F78FEF888709C0FC0160847184D5
:1033E00082844089882DB3010E94DD1C6DE872E261
:1033F000CE0108960E94D016009779F78FEF8F8341
:1034000005C0FC01138E128E0E94111E69ED7BE136
:10341000CE0107960E94D016009799F78FEF8E8302
:103420001FEF0AC090910002828D981302C0109382
:103430000002868D8111C4C066E873E2CE01069653
:103440000E94D016FC01892B69F78FEF8D8304C091
:10345000FC01258120FDCEC06BEF73E1CE01059606
:103460000E94D0160097A1F78FEF8D830AC09C01B0
:103470002D5F3F4FFC01428160E0808191810E947D
:103480000A1561ED73E1CE0105960E94D0160097F2
:1034900071F78FEF8C8366E078E2CE0104960E948C
:1034A000D016FC01892B89F081899289A085B1858C
:1034B0002285211108C02FB7F894992711969C9363
:1034C0008E932FBFE8CF8C93E6CF8FEF8B830EC008
:1034D000F80164857585868540E00E94DD1CF80151
:1034E00067857089818940E00E94DD1C6BE877E286
:1034F000CE0103960E94D0168C01892B49F78FEFDD
:103500008A832CC0F80161857285838540E00E9422
:10351000DD1CF80164857585868540E00E94DD1C10
:10352000F80167857089818940E00E94DD1CF801FF
:1035300062897389848940E00E94DD1CF8016589F5
:103540007689878940E00E94DD1CF801608D718DCD
:10355000828D40E00E94DD1CF801108663EC71E171
:10356000CE0102960E94D0168C01892B59F68FEF5E
:10357000898302C00E94060F62E07EE0CE010196C0
:103580000E94D0160097B1F78AE192E00E940F29BD
:1035900081E0809372027894809147021F928F930A
:1035A000CF92DF92EF92FF928FEF94E09F938F93F1
:1035B0000E944E170FB6F894DEBF0FBECDBFB3CE3C
:1035C0008F5F858F40895189628973898085918554
:1035D000A285B385840F951FA61FB71F808B918B83
:1035E000A28BB38B84839583A683B783CF010E947C
:1035F0000F2922CF62817381848141E00E94DD1C0A
:103600002BCFCF93DF93EC0169ED7BE188810E94A2
:10361000A01FFC018C819D81AE81BF81892B8A2BEB
:103620008B2B51F420E0F89492A19D7F922B92A3D2
:103630007894DF91CF91089522E0F5CFCF93DF9377
:10364000EC0169ED7BE188810E94A01FFC014C81A7
:103650005D816E817F81F89486859785892B61F4E1
:10366000448355836683778392A19F7A906192A366
:103670007894DF91CF91089586E10E9447170F93C8
:103680001F93CF93DF938C0169ED7BE1DC018C917B
:103690000E94A01FEC018FB7F894E0916402F091B2
:1036A0006502309709F47FC0208131813093650233
:1036B000209364028FBFD80114964D915D916D9156
:1036C0007C911797408351836283738318968D9101
:1036D0009C91199797838683892B09F467C0D80139
:1036E0001C968D919C911D979583848311861086DD
:1036F0001286F8948AA1282F217081FB992790F9CE
:10370000291729F091E08927928591609287982F57
:103710009F7D268137812130310549F1892F8F7EA8
:103720002E853F85232B91F08AA38A8D9B8D892B33
:10373000B9F1AC8DBD8DED93FC933896FD8FEC8F78
:103740007894DF91CF911F910F91089596FD18C045
:103750008AA3FB8FEA8FCE010E946F1DCE010E94CB
:103760000F297894DF91CF911F910F9108952285B1
:10377000222311F09062D2CF84FFD0CF9062CECFBF
:10378000809164029091650291838083F093650239
:10379000E09364027894DF91CF911F910F91089587
:1037A000FB8FEA8FCACF8FE00E94471787E10E9404
:1037B00047170F931F93CF93DF938C0143E250E0A1
:1037C00069ED7BE1FC0180810E942520EC01F8017C
:1037D00080899189A289B389892B8A2B8B2BA9F5A2
:1037E00060E06AA3F80184810E940825688B798BC8
:1037F0008A8B60E0F80180850E9408256B8B7C8BAA
:103800008D8BF80184859585A685B7858E8F9F8FD2
:10381000A8A3B9A380E090E0A0E0B0EC8E8B9F8BD2
:10382000A88FB98F8091620290916302892B79F4FD
:103830008091610290E00B971CF48BE08093610211
:10384000DF91CF911F910F91089564E0CACF0E943C
:10385000B412CF92DF92EF92FF926B017C0109C00C
:103860000E944126292F6C157D058E052F0927FF03
:1038700009C08091BC0087FFF3CFFF90EF90DF90ED
:10388000CF9008958DE20E944717BF92CF92DF92AA
:10389000EF92FF920F931F93CF93DF93D82FC62FF2
:1038A000B42E152F0E9441266B017C0120E8C20E28
:1038B00028E3D21E21E0E21EF11C84EA8093BC00C2
:1038C000C701B6010E94291C8091B90090E0A0E0D8
:1038D000B0E080319105A105B10521F00897A1055F
:1038E000B10579F5D093BB0084E88093BC00C70193
:1038F000B6010E94291C0FEF0C0FCC23A9F0CB2D91
:10390000D12F10E00F5F1F4F0C0F1D1F84E8B82E42
:1039100089918093BB00B092BC00C701B6010E94A0
:10392000291CC017D107A1F784E98093BC00DF915F
:10393000CF911F910F91FF90EF90DF90CF90BF90AC
:1039400008958CE20E9447178036A0F567FD32C0CB
:10395000E82FE695E695E695F0E0EE0FFF1FE451BF
:10396000F24FA591B491109729F1877021E030E0D2
:10397000A90102C0440F551F8A95E2F7CA014FB74B
:10398000F89412963C911297662381F0382B282FD9
:10399000209512963C93129711963C9111972323F0
:1039A00011962C9311974FBFBD010895282F209594
:1039B0003223EFCF87E20E944717FB012FB7F8941D
:1039C0009281411105C08095892382832FBF08957C
:1039D000892B82832FBF0895FF920F931F93CF935C
:1039E000DF93EC01FC844F2D50E0440F551F455EE2
:1039F0005F4F6CEE7CE188810E9425208C016885F8
:103A00008C810E94A41CF801608771878287F08EE8
:103A100081E0818FDF91CF911F910F91FF900895E9
:103A2000EF92FF920F931F93CF938C016CEE7CE18A
:103A3000FC0180810E94A01F7C01F801C481FC016F
:103A4000808DC817A0F469ED7BE1F80180850E94A4
:103A5000A01FEC2FF0E0EE0FFF1FEE0DFF1D948F67
:103A6000838FCF911F910F91FF90EF9008958AE17E
:103A70000E944717CF93FC01C08169ED7BE18C2F39
:103A80000E94A01FFC01F89486899789A08DB18DB2
:103A900026853785821B930BA109B109B7FF07C0A3
:103AA000B095A095909581959F4FAF4FBF4F78945B
:103AB000B054BF93AF939F938F931F92CF9387ED93
:103AC00094E09F938F930E944E178DB79EB70896F0
:103AD0000FB6F8949EBF0FBE8DBFCF910895CF92C1
:103AE000DF92EF92FF920F931F93CF93DF93FC012E
:103AF000A28DB38D109709F473C04D915D916D91B6
:103B00007C9113970481158126813781040F151F3D
:103B1000261F371F048315832683378314968D91C0
:103B20009C911597958784878C01092E000C220B98
:103B3000330B400F511F621F731F408751876287ED
:103B40007387892BB9F582A1877F82A316964D9141
:103B50005C911797578746871A968C911A9780FD24
:103B60002CC006891789208D318D68017901C40E1A
:103B7000D51EE11CF11CC68AD78AE08EF18E1896FC
:103B80008D919C911997938F828F8091640290916F
:103B9000650211969C938E93B0936502A093640284
:103BA00081E0DF91CF911F910F91FF90EF90DF9017
:103BB000CF90089582A18860C8CF60E070E0068948
:103BC0001789208D318D401B510B620B730B468B77
:103BD000578B608F718FC389D48985898883CFCFB4
:103BE00044855585052E000C660B770B80859185E5
:103BF000A285B385841B950BA60BB70B468D578DFD
:103C000060A171A184179507A607B70718F482A1D0
:103C100085FF04C01786168680E0C3CF89E10E9425
:103C20004717CF93DF93EC010E94D9281C821D8295
:103C30001E821F828E899F89A88DB98D2E853F8512
:103C4000821B930BA109B109B7FD39C0B095A095AE
:103C5000909581959F4FAF4FBF4F8E8B9F8BA88FB5
:103C6000B98F1F861E868AA1847080648AA36B899F
:103C70007C898D8940E00E94DD1C4AA144706889DE
:103C800079898A890E94DD1CEA8DFB8D3097A1F02D
:103C9000309164022091650201C0FC01808591850C
:103CA00030832183F0936502E09364023E2F2F2F2F
:103CB000009799F71B8E1A8EDF91CF910895B095DA
:103CC000A095909581959F4FAF4FBF4FBFCF0F935A
:103CD0001F93CF93FC01A085B1859C918285892398
:103CE000E9F0878980958170E1F4828D815061F1DE
:103CF000828F448155816681778187859089A189EA
:103D0000B289840F951FA61FB71F84839583A6834E
:103D1000B78381E0CF911F910F91089587898170BA
:103D200021F382EC9EE19383828383899489A58920
:103D3000B68984839583A683B783818D828F81E042
:103D4000CF911F910F9108958F0184E0878BC08DD3
:103D5000C15070F0EC2FF0E0EE0FFF1FE00FF11FED
:103D6000838D948D009711F00E94111EC15090F721
:103D70001092740281E08093660280E0CF911F91DF
:103D80000F9108950F931F93FC01A085B1859C911D
:103D90000481158126813781438554856585768523
:103DA000400F511F621F731F8285892361F087892D
:103DB0008095817059F0448355836683778381E0D1
:103DC0001F910F91089587898170A9F7438B548BB8
:103DD000658B768B87E69EE193838283CF011F916B
:103DE0000F910C94671ECF92DF92EF92FF92FC012D
:103DF00040815181628173812481E8EEFDE08591EB
:103E00009591A591B491481759076A077B0770F5FA
:103E10006A017B01C20ED11CE11CF11C8C159D05B1
:103E2000AE05BF0500F5841B90E09A01225F3A4F72
:103E30003F932F939F938F937F936F935F934F93B2
:103E40008AEF94E09F938F930E944E178DB79EB791
:103E50000A960FB6F8949EBF0FBE8DBFFF90EF90ED
:103E6000DF90CF900895822F90E0DFCF80E090E048
:103E7000DCCF80917202882329F0823011F01092F9
:103E80007202089582E00E94471788E00E94471757
:103E9000CF92DF92EF92FF920F931F930E944126E1
:103EA0009F938F937F936F9301E010E020E030E0C9
:103EB000C0906B02D0906C02E0906D02F0906E02A8
:103EC0006C157D058E059F0518F000E010E0980147
:103ED0008091670290916802A0916902B0916A0294
:103EE000800F911FA21FB31FBF93AF939F938F9318
:103EF00080EF94E09F938F930E944E178DB79EB7EB
:103F00000A960FB6F8949EBF0FBE8DBF1F910F91FA
:103F1000FF90EF90DF90CF9008950E9441269F93ED
:103F20008F937F936F938BEE94E09F938F930E9478
:103F30004E170F900F900F900F900F900F900895C5
:103F400090913C02891788F4E0913D02F0913E0285
:103F500094E0899FE00DF11D1124808191818617E5
:103F6000970719F48281938108958CE00E94471786
:103F7000CF92DF92EF92FF92CF93DF93C0916202D4
:103F8000D09163022097B9F121976E01E12CF12CB9
:103F9000A0916102B0E02097D9F020E030E040E04D
:103FA00050E0BA018091410290914202FC01E20F7F
:103FB000F31F4F5F5F4F6F4F7F4F2A0F3B1F820FE3
:103FC000931F918380834C155D056E057F0550F32B
:103FD0008091410290914202CA9FF001CB9FF00D67
:103FE000DA9FF00D1124E80FF91F118210829093CF
:103FF000650280936402DF91CF91FF90EF90DF9094
:10400000CF900895CF93DF93C0913F02D0914002AB
:10401000AE01480F591F2DB73EB721503F4F222701
:104020003A952417350770F05093400240933F02B1
:10403000AC0160E070E0CE010E94A02ACE01DF91C9
:10404000CF91089581E10E944717CF93DF9390911C
:104050003C02891730F5C82FD0E0CC0FDD1FCC0F04
:10406000DD1FE0913D02F0913E02EC0FFD1F8081CB
:104070009181892BB1F48091620290916302892B26
:1040800081F471836083CA010E94022020913D0265
:1040900030913E02C20FD31F9B838A83DF91CF9161
:1040A00008958BE00E944717CF92DF92EF92FF9224
:1040B0001F93CF93DF936A017B0164E07EE0FB01F5
:1040C0009491981749F0675F7F4FFEE064397F074E
:1040D000B1F781E30E944717FB013896949191FF55
:1040E0001AC030EAC3163FE5D306E104F10408F430
:1040F00083C0C0E8CC16CEE7DC06C1E0EC06F104D4
:1041000008F090C0D0E4CD16DFEBDD06E104F10449
:10411000C8F414E022C0F8EBCF16F7E4DF06E104A0
:10412000F10490F0A0ECCA16AEE3DA06A1E0EA06CC
:10413000F10408F475C0C114BBEFDB06B4E0EB0674
:10414000F10438F315E009C037EFC31638E0D306A1
:10415000E104F10408F05FC011E0FB013396A59182
:10416000B491FB013596C591D491FB0137963491FA
:10417000E82FE695E695E695F0E0EE0FFF1FE45197
:10418000F24F459154918770E1E0F0E07F0101C06A
:10419000EE0C8A95EAF7FB013196C590D490892FF1
:1041A0008170A038B10509F44BC0EFB7F89498813D
:1041B000977011F0191341C0188381112EC09FB759
:1041C000F894622F70E0E601798368839FBF9C9129
:1041D0003160392B3C93DA0111969C911197E92AB1
:1041E0001196EC92EFBFB601DF91CF911F91FF9036
:1041F000EF90DF90CF900895A8EDCA16A7E2DA06F7
:10420000E104F10468F4B7EFCB16B8E0DB06E10493
:10421000F10408F4A1CF12E0A0CFE6012883D7CFA4
:1042200013E09BCFC114EBEFDE06E4E0EE06F104F1
:1042300010F416E092CF17E090CF8FE20E9447175C
:1042400080E30E9447170F931F93FC01A4A1B5A11F
:1042500086A18C9390A581E0892780A74481558110
:104260006681778180FF12C00085118522853385A4
:10427000400F511F621F731F82FD12C0448355837C
:104280006683778381E01F910F91089504851585DA
:1042900026853785400F511F621F731F82FFEECFA7
:1042A0000089118922893389872F401751076207B6
:1042B000830B87FDE3CF84EB92E293838283B90182
:1042C000A801448355836683778381E01F910F9112
:1042D00008958F929F92AF92BF92CF92DF92EF920A
:1042E000FF920F931F93CF93DF938C0166E472E2EA
:1042F000FC0180810E94A01FEC01F801C480D580E0
:10430000E680F780408551856285738541155105AA
:104310006105710509F462C008A119A12AA13BA198
:10432000401751076207730708F47CC09CE1E1E085
:10433000F0E0452B462B472B09F458C02FA130E065
:10434000E217F30749F04C8D5D8D6E8D7F8D452B07
:10435000462B472B09F04DC000E010E0980140E0EB
:1043600050E0BA01F89488A582FD4EC0C88AD98A67
:10437000EA8AFB8A4C8B5D8B6E8B7F8B088F198F43
:104380002A8F3B8F8F70892B88A781FF0BC04C81B0
:104390005D816E817F81872F4C155D056E058F09CC
:1043A00087FD0EC0CE010E94D928CC82DD82EE822C
:1043B000FF8284EB92E29B838A83CE010E940F29C5
:1043C0007894DF91CF911F910F91FF90EF90DF9044
:1043D000CF90BF90AF909F908F9008959CE0E1E0C8
:1043E000F0E0452B462B472B09F0A8CFE0E0F0E0AA
:1043F000A5CF906400E010E0980140E050E0BA01E1
:10440000F89488A582FFB2CF88889988AA88BB884B
:10441000EB2D8C149D04AE04EF09E7FFA7CF83E1D9
:104420000E944717041B150B260B370B8C8D9D8D97
:10443000AE8DBF8D892B8A2B8B2B11F09CE792CFF1
:104440009CE390CF0F931F93CF93DF938C016DE884
:1044500072E2FC0180810E94A01FEC010E94D92819
:1044600088E193E29B838A83F80184819581A68108
:10447000B7818C839D83AE83BF8380858F87CE0178
:10448000DF91CF911F910F910C940F29CF92DF9262
:10449000EF92CF93DF93EC0161E08C859D85AE8533
:1044A000BF85892B8A2B8B2B09F460E08C810E94BD
:1044B00008256B01E82E49E250E066E472E288814B
:1044C0000E942520FC01C4A2D5A2E6A28885998578
:1044D000AA85BB8580A391A3A2A3B3A381E0488949
:1044E00059896A897B89452B462B472B09F480E043
:1044F00087A34C895D896E897F89448F558F668F2C
:10450000778F80A7DF91CF91EF90DF90CF900895C4
:10451000FC01648180810C940825CF92DF92EF9298
:10452000CF93DF93EC0168858C810E9408256B0195
:10453000E82E41E150E06DE872E288810E9425207A
:10454000FC01C086D186E2868C85808B888999891A
:10455000AA89BB8983879487A587B687DF91CF9186
:10456000EF90DF90CF9008951F93CF93DF93EC01EE
:1045700018A513FF5AC012951F7018A7412F41703C
:104580006CA17DA18EA10E94DD1C11FD1DC0812F9B
:10459000847012FF46C0488959896A897B898C8D4D
:1045A0009D8DAE8DBF8D840F951FA61FB71F888B65
:1045B000998BAA8BBB8B8C839D83AE83BF8381E059
:1045C000DF91CF911F91089583E291E29B838A83CB
:1045D000888D998DAA8DBB8D8C879D87AE87BF876F
:1045E0004C895D896E897F89488759876A877B876F
:1045F00088899989AA89BB89480F591F6A1F7B1F1F
:104600004C835D836E837F834C8D5D8D6E8D7F8D3E
:10461000840F951FA61FB71F888B998BAA8BBB8B06
:1046200081E0DF91CF911F91089584E10E944717A7
:10463000CF93DF93EC01688579858A854F850E9449
:10464000DD1C9F8588899817E1F08B859C85AD8559
:10465000BE850097A105B105A1F04C815D816E81F9
:104660007F81840F951FA61FB71F8C839D83AE8308
:10467000BF838FE492E19B838A8381E0DF91CF91B6
:10468000089580E0DF91CF9108950F931F93CF930A
:10469000DF938C016DE872E2FC0180810E94A01F13
:1046A000EC010E94D928F8011481688579858A85F2
:1046B000412F0E94DD1C8889181741F08B859C854D
:1046C000AD85BE85892B8A2B8B2B29F4DF91CF9169
:1046D0001F910F9108950E9441260B851C852D8501
:1046E0003E85DC01CB01800F911FA21FB31F8C837D
:1046F0009D83AE83BF838FE492E19B838A83CE0147
:10470000DF91CF911F910F910C940F29CF93DC0172
:1047100014969C91149720E030E0C22FF901EC56DA
:10472000F14FE4919E1741F02F5F3F4F203131054B
:10473000A1F789E20E94471787E980937A00283021
:10474000E8F420917E0081E090E00C2E01C0880FFB
:104750000A94EAF7822B80937E004FE150E066E8EE
:1047600073E28C910E942520FC018CEC93E29383F0
:104770008283C28F81E0858FCF91089520917D0043
:104780003C2F377081E090E001C0880F3A95EAF73E
:10479000822B80937D00E1CFFC0180917A0086FF1F
:1047A0000EC084819581A681B7818853984FAF4F01
:1047B000BF4F84839583A683B78381E00895828D5C
:1047C00090910002981781F09F3F59F78093000263
:1047D000982F987090937B008770806480937C0002
:1047E00087ED80937A00DDCF8FEF809300022091D8
:1047F000780030917900858D968D891780F54489F0
:104800005589240F351F8F5F358B248B858F891732
:1048100060F18689978928173907C8F1808D918DB5
:1048200082179307A0F1138E1092740281E0809397
:104830006F02408951896289738980859185A2853B
:10484000B385840F951FA61FB71F808B918BA28BFA
:10485000B38B84839583A683B78381E0089581E039
:10486000358B248B858F8917A0F64481558166810D
:10487000778184859585A685B785840F951FA61FAA
:10488000B71F84839583A683B78381E00895838DC2
:104890008F5F838F948D891738F280917202811116
:1048A000C2CF8BE10E9447170F931F93CF93DF93E3
:1048B0008C016CEE7CE1FC0180810E94A01FEC0168
:1048C0000E94D928F80184819581A681B7818C83C3
:1048D0009D83AE83BF8380859185A285B3858F87B5
:1048E000988BA98BBA8B8485898F882341F1F80135
:1048F00040895189628973894B875C876D877E8780
:1049000022EC3EE13B832A838A8F84899589A6899C
:10491000B789892B8A2B8B2B49F482E08F8BCE01B0
:10492000DF91CF911F910F910C940F2983E08F8B12
:10493000CE01DF91CF911F910F910C940F291F8A07
:10494000DF91CF911F910F910895F894DA019C9116
:10495000292F2B7F2C937894DB01ED91FC911197FB
:10496000308112962C91232331E009F430E01F921C
:104970003F93969591701F929F931F928F9382ED14
:1049800094E09F938F930E944E17EDB7FEB7389631
:104990000FB6F894FEBF0FBEEDBF0895CF93FC0194
:1049A000C0816CEE7CE18C2F0E94A01FAC01495E9F
:1049B0005F4FBC01685F7F4F8C2FCF910C94A52473
:1049C000B0990FC08091700290917102019610927F
:1049D0001F0210921E02909321028093200281E018
:1049E000089581E086BB80917002909171020196DA
:1049F000909371028093700220E030E830931F02A0
:104A000020931E02909321028093200281E008955A
:104A1000803678F5E82FE695E695E695F0E0EE0F1E
:104A2000FF1FE451F24FA591B491109711F18770D7
:104A300021E030E0A90102C0440F551F8A95E2F73A
:104A4000CA013FB7F89412962C91129761110FC0CA
:104A50004095242312962C93129711962C9111971E
:104A6000282B11962C9311973FBFBD010895242B3D
:104A7000F1CF88E20E9447171F920F920FB60F9254
:104A800011240BB60F92EF92FF920F931F932F9367
:104A90003F934F935F936F937F938F939F93AF93C6
:104AA000BF93CF93DF93EF93FF93C0912202D091F6
:104AB0002302EA81FB81309709F067C0E889F98910
:104AC0002A8920838E859F85019709F4B6C09F8728
:104AD0008E8788859985AA85BB854C815D816E818D
:104AE0007F81480F591F6A1F7B1F4C835D836E8334
:104AF0007F8320832AA123FF0EC00C851D85012EF4
:104B0000000C220B330B800F911FA21FB31F88874D
:104B10009987AA87BB87E881F9810481158126815D
:104B20003781872F401751076207830B87FD66C0C7
:104B30007801F0932302E0932202DF010190F081DB
:104B4000E02D0481158126813781872F4017510779
:104B50006207830B87FFF1CFF983E883CD93DC9362
:104B600080918400909185008E199F0997FD25C042
:104B70007894B29945C0F894C0912202D091230252
:104B8000EA81FB81309709F499CFCE0119954C81C8
:104B90005D816E817F818111BECFE881F981E480E2
:104BA000F580F0932302E09322028091840090919B
:104BB00085008E199F0997FFDBCF863A9F4F0CF037
:104BC0004FC0F0928900E0928800FF91EF91DF9151
:104BD000CF91BF91AF919F918F917F916F915F9195
:104BE0004F913F912F911F910F91FF90EF900F9058
:104BF0000BBE0F900FBE0F901F9018957A01B0CF8B
:104C0000F89480918400909185009701281B390BBE
:104C10002038314CF4F02091740227FF26C09C010B
:104C2000205C304E30938B0020938A0024E026BB1A
:104C3000909389008093880093CFCE010E946F1DCE
:104C4000E889F9899A8990834C815D816E817F81A1
:104C5000A2CF209172022111DECF86E20E94471777
:104C60007894B299CDCFF8947BCF9C012854344FDF
:104C700030938B0020938A0024E026BB7C01F394C0
:104C8000A0CF2FB7F8946091840070918500809137
:104C9000700290917102B09902C02FBF08952FBF8A
:104CA0007F3FE1F30196089578940E9433192FEF26
:104CB000260F6623C1F0FC018FEF9FEF3191832710
:104CC000082E8295807F8025092E982F82958F70DF
:104CD0000826869598278927880F880F880F8025B2
:104CE000215060F708958FEF9FEF0895CF93DF93E2
:104CF000DC011C96ED91FC911D971E969C911E97D0
:104D00001F96CD91DC91509751962C9188E005C06B
:104D10009083660F9083815049F067FFF9CF288315
:104D200060959083660F90838150B9F7DF91CF91A2
:104D30000895FC0187859089A085B1852285211180
:104D40002AC02FB7F894992711969C938E932FBF62
:104D5000278530898189928928173907D1F0838581
:104D60009485A585B6850097A105B10591F044818C
:104D7000558166817781840F951FA61FB71F848395
:104D80009583A683B78389E598E29383828381E044
:104D9000089580E008958C93DBCF4F925F926F92DD
:104DA0007F928F929F92AF92BF92CF92DF92EF92BB
:104DB000FF920F931F93CF93DF938C01562E3A01EE
:104DC000FC0180809180A280B380C480D580E68081
:104DD000F780EA012196FA014080642D607F0E94ED
:104DE00076260E944126DC01CB0188199909AA097F
:104DF000BB098C159D05AE05BF0598F3642D629522
:104E0000607FC8010E9476260E9441266B017C01CA
:104E1000F80180849184A284B384F1E05F1639F1B3
:104E20005A945A94852D90E00296680E791E5990F6
:104E3000652D607FC8010E9476260E944126DC0114
:104E4000CB018C199D09AE09BF0988159905AA05E2
:104E5000BB0598F3652D6295607FC8010E94762698
:104E60000E9441266B017C01C615D70501F7F801A8
:104E7000C082D182E282F382DF91CF911F910F91A4
:104E8000FF90EF90DF90CF90BF90AF909F908F906A
:104E90007F906F905F904F9008950F931F93CF93E3
:104EA000DF93EC016BE877E288810E94A01F8C0100
:104EB0006AEF0E9476266C81611105C0DF91CF9167
:104EC0001F910F91089548855985C801DF91CF91B1
:104ED0001F910F910C94CD260F931F93CF93DF93C7
:104EE000EC016BE877E288810E94A01F8C0168EFDB
:104EF0000E9476266C81611105C0DF91CF911F91D0
:104F00000F91089548855985C801DF91CF911F9170
:104F10000F910C94CD26CF92DF92EF92FF920F93D8
:104F20001F93CF93DF938C0142E150E06BE877E26F
:104F3000FC0180810E942520EC0160E0F801808561
:104F40000E9408256C877D878E8760E0F801848544
:104F50000E9408256F87788B898B61E0F801848136
:104F60000E94082568EFCE010E94762660E2CE01FD
:104F70000E947626F8940E9441266B017C0160E035
:104F8000CE010E9476260E94412678946883798318
:104F90008A839B83DC01CB018C199D09AE09BF0973
:104FA000F801C088D188E288F3888C159D05AE058C
:104FB000BF0540F4C81AD90AEA0AFB0ACC82DD828E
:104FC000EE82FF82F80104891589268937898017C6
:104FD0009107A207B30740F4081B190B2A0B3B0BE0
:104FE000088719872A873B87DF91CF911F910F91FF
:104FF000FF90EF90DF90CF900895FC0144815581A0
:1050000066817781208580810C945420CF92DF9235
:10501000EF92CF93DF93EC01488559856A857B85B4
:105020002C858C810E9454206B01E82E43E150E0D6
:1050300066E078E288810E942520FC01C086D18646
:10504000E28688899989928B818B8C899D89AE892A
:10505000BF8983879487A587B687DF91CF91EF902B
:10506000DF90CF9008950F931F93CF93DF938C0120
:1050700066E078E2FC0180810E94A01FEC010E94A2
:10508000D92889E996E29B838A83F80184819581F6
:10509000A681B7818C839D83AE83BF8380859185F4
:1050A000988B8F87CE01DF91CF911F910F910C9438
:1050B0000F2981E20E944717AF92BF92DF92EF92D1
:1050C000FF920F931F93CF93DF93FC01A485B585C7
:1050D000968547855089E18822893389F488A58897
:1050E000B6887789008D118DD28C808586279C9318
:1050F00084FD20C085FD22C086FD24C087FD26C01A
:105100009C93862F8295807F808768279C9364FD7F
:105110002AC065FD25C066FD1CC067FD1EC09C93AE
:10512000DF91CF911F910F91FF90EF90DF90BF9093
:10513000AF900895EA01E88285FFDECFE901F882A9
:1051400086FFDCCFE501788387FFDACFE801D882DC
:10515000D7CFF501708367FFE2CFE801D882DFCFB8
:10516000E901F882D8CFFA01E082D3CF80E0089538
:1051700010927402E2E1F2E084819581A681B78108
:10518000AC01BD015659674E7F4F448355836683FA
:1051900077839659A74EBF4780930E0290930F02D4
:1051A000A0931002B093110281E0089584E00E9460
:1051B00047174FB7F894E0912202F0912302E817C5
:1051C000F90729F412C08217930741F0F9012081F1
:1051D000318121153105B9F74FBF0895DC018D915B
:1051E0009C91918380834FBF089584819581A6818E
:1051F000B7818093050290930602A0930702B093B3
:10520000080280819181909302028093010281E0E3
:1052100092E090932302809322024FBF0895AF92B1
:10522000BF92CF92DF92EF92FF921F93CF93DF93C3
:10523000DC011496CD90DD90ED90FC9017971FB790
:10524000F894C0912202D09123024C815D816E813D
:105250007F818F2DC416D506E606870B87FD1FC0FC
:10526000FE010990D881C02D4C815D816E817F81C6
:105270009F2DC416D506E606970B97FFF1CF119622
:10528000DC93CE93B183A0831FBFDF91CF911F9199
:10529000FF90EF90DF90CF90BF90AF9008955D01A9
:1052A0000E9441262F2DC616D706E806290B27FD9A
:1052B00025C082E0C130D80741F1F501D183C08318
:1052C000C0920502D0920602E0920702F092080214
:1052D000B0920202A092010281E092E09093230238
:1052E000809322028091840090918500C2969093D1
:1052F00089008093880082E086BBC6CF80917202CD
:105300008111D7CF83E00E944717809101029091CD
:105310000202F50191838083D3CFF89498E088E16D
:105320000FB6F894A895809360000FBE909360002C
:10533000FFCF1F920F920FB60F9211240BB60F9250
:105340008F93EF93FF93E091970380919603E81773
:10535000A0F481E08E0F80939703F0E0EA5CFC4FAD
:1053600080818093C600FF91EF918F910F900BBECB
:105370000F900FBE0F901F9018958091C1008F7DE8
:105380008093C100F0CF1F920F920FB60F9211249D
:105390000BB60F928F939F93EF93FF938091C6006C
:1053A0008E37B9F0E0913503E03C40F491E09E0F78
:1053B00090933503F0E0EB58FD4F8083FF91EF9120
:1053C0009F918F910F900BBE0F900FBE0F901F906B
:1053D000189510927402E6CF1F920F920FB60F929B
:1053E000112481E08093730282E30E944717DB015E
:1053F0008F939F930E940E2ABF91AF91A29F800D21
:10540000911DA39F900DB29F900D112408956927BF
:105410009627692778278727782708950E94192AD1
:10542000A59F900DB49F900DA49F800D911D1124F8
:105430000895A29FB001B39FC001A39F700D811D6D
:105440001124911DB29F700D811D1124911D08958D
:10545000DC012D923D924D925D926D927D928D92E6
:105460009D92AD92BD92CD92DD92ED92FD920D9303
:105470001D93CD93DD930F90FF91EF918DB78D9399
:105480008EB78D938FB78D93ED93FD9388279927D2
:105490000D9221C0DC01CB0181309105811D2D9041
:1054A0003D904D905D906D907D908D909D90AD90D4
:1054B000BD90CD90DD90ED90FD900D911D91CD9121
:1054C000DD91ED91FD910D90F894FEBF0FBEEDBF03
:1054D000ED91FD910D90EF93FF930F920895FB01D5
:1054E000DC0102C005900D9241505040D8F708955C
:1054F000FC014150504030F001900616D1F7319731
:10550000CF010895882799270895FB01DC0102C087
:1055100001900D9241505040D8F7089568177907CF
:1055200068F4FB01DC01E40FF51FA40FB51F02C0F6
:1055300002900E9241505040D8F708950C94852A5D
:10554000DC0101C06D9341505040E0F70895F8949C
:02555000FFCF8B
:10555200FF0000B62800000000100000D62800005E
:1055620000800A02B828000000000000E024008049
:045572000000120221
:00000001FF
